{
  "_format": "hh-sol-artifact-1",
  "contractName": "ContextRouter",
  "sourceName": "contracts/ContextRouter.sol",
  "abi": [
    {
      "inputs": [
        {
          "internalType": "address",
          "name": "_usdcAddress",
          "type": "address"
        }
      ],
      "stateMutability": "nonpayable",
      "type": "constructor"
    },
    {
      "inputs": [
        {
          "internalType": "address",
          "name": "owner",
          "type": "address"
        }
      ],
      "name": "OwnableInvalidOwner",
      "type": "error"
    },
    {
      "inputs": [
        {
          "internalType": "address",
          "name": "account",
          "type": "address"
        }
      ],
      "name": "OwnableUnauthorizedAccount",
      "type": "error"
    },
    {
      "inputs": [],
      "name": "ReentrancyGuardReentrantCall",
      "type": "error"
    },
    {
      "inputs": [
        {
          "internalType": "address",
          "name": "token",
          "type": "address"
        }
      ],
      "name": "SafeERC20FailedOperation",
      "type": "error"
    },
    {
      "anonymous": false,
      "inputs": [
        {
          "indexed": true,
          "internalType": "address",
          "name": "developer",
          "type": "address"
        },
        {
          "indexed": false,
          "internalType": "uint256",
          "name": "amount",
          "type": "uint256"
        }
      ],
      "name": "EarningsClaimed",
      "type": "event"
    },
    {
      "anonymous": false,
      "inputs": [
        {
          "indexed": true,
          "internalType": "address",
          "name": "previousOwner",
          "type": "address"
        },
        {
          "indexed": true,
          "internalType": "address",
          "name": "newOwner",
          "type": "address"
        }
      ],
      "name": "OwnershipTransferred",
      "type": "event"
    },
    {
      "anonymous": false,
      "inputs": [
        {
          "indexed": true,
          "internalType": "address",
          "name": "platform",
          "type": "address"
        },
        {
          "indexed": false,
          "internalType": "uint256",
          "name": "amount",
          "type": "uint256"
        }
      ],
      "name": "PlatformFeesClaimed",
      "type": "event"
    },
    {
      "anonymous": false,
      "inputs": [
        {
          "indexed": true,
          "internalType": "uint256",
          "name": "toolId",
          "type": "uint256"
        },
        {
          "indexed": true,
          "internalType": "address",
          "name": "user",
          "type": "address"
        },
        {
          "indexed": true,
          "internalType": "address",
          "name": "developer",
          "type": "address"
        },
        {
          "indexed": false,
          "internalType": "uint256",
          "name": "amount",
          "type": "uint256"
        },
        {
          "indexed": false,
          "internalType": "uint256",
          "name": "platformFee",
          "type": "uint256"
        }
      ],
      "name": "QueryPaid",
      "type": "event"
    },
    {
      "inputs": [],
      "name": "PLATFORM_FEE_PERCENT",
      "outputs": [
        {
          "internalType": "uint256",
          "name": "",
          "type": "uint256"
        }
      ],
      "stateMutability": "view",
      "type": "function"
    },
    {
      "inputs": [],
      "name": "claimEarnings",
      "outputs": [],
      "stateMutability": "nonpayable",
      "type": "function"
    },
    {
      "inputs": [],
      "name": "claimPlatformFees",
      "outputs": [],
      "stateMutability": "nonpayable",
      "type": "function"
    },
    {
      "inputs": [
        {
          "internalType": "address",
          "name": "",
          "type": "address"
        }
      ],
      "name": "developerBalances",
      "outputs": [
        {
          "internalType": "uint256",
          "name": "",
          "type": "uint256"
        }
      ],
      "stateMutability": "view",
      "type": "function"
    },
    {
      "inputs": [
        {
          "internalType": "uint256",
          "name": "toolId",
          "type": "uint256"
        },
        {
          "internalType": "address",
          "name": "developerWallet",
          "type": "address"
        },
        {
          "internalType": "uint256",
          "name": "amount",
          "type": "uint256"
        }
      ],
      "name": "executePaidQuery",
      "outputs": [],
      "stateMutability": "nonpayable",
      "type": "function"
    },
    {
      "inputs": [],
      "name": "getPlatformBalance",
      "outputs": [
        {
          "internalType": "uint256",
          "name": "",
          "type": "uint256"
        }
      ],
      "stateMutability": "view",
      "type": "function"
    },
    {
      "inputs": [
        {
          "internalType": "address",
          "name": "developer",
          "type": "address"
        }
      ],
      "name": "getUnclaimedBalance",
      "outputs": [
        {
          "internalType": "uint256",
          "name": "",
          "type": "uint256"
        }
      ],
      "stateMutability": "view",
      "type": "function"
    },
    {
      "inputs": [],
      "name": "owner",
      "outputs": [
        {
          "internalType": "address",
          "name": "",
          "type": "address"
        }
      ],
      "stateMutability": "view",
      "type": "function"
    },
    {
      "inputs": [],
      "name": "platformBalance",
      "outputs": [
        {
          "internalType": "uint256",
          "name": "",
          "type": "uint256"
        }
      ],
      "stateMutability": "view",
      "type": "function"
    },
    {
      "inputs": [],
      "name": "renounceOwnership",
      "outputs": [],
      "stateMutability": "nonpayable",
      "type": "function"
    },
    {
      "inputs": [
        {
          "internalType": "address",
          "name": "newOwner",
          "type": "address"
        }
      ],
      "name": "transferOwnership",
      "outputs": [],
      "stateMutability": "nonpayable",
      "type": "function"
    },
    {
      "inputs": [],
      "name": "usdc",
      "outputs": [
        {
          "internalType": "contract IERC20",
          "name": "",
          "type": "address"
        }
      ],
      "stateMutability": "view",
      "type": "function"
    }
  ],
  "bytecode": "0x60a060405234801561001057600080fd5b506040516109df3803806109df83398101604081905261002f9161011b565b338061005657604051631e4fbdf760e01b8152600060048201526024015b60405180910390fd5b61005f816100cb565b50600180556001600160a01b0381166100ba5760405162461bcd60e51b815260206004820152601460248201527f496e76616c696420555344432061646472657373000000000000000000000000604482015260640161004d565b6001600160a01b031660805261014b565b600080546001600160a01b038381166001600160a01b0319831681178455604051919092169283917f8be0079c531659141344cd1fd0a4f28419497f9722a3daafe3b4186f6b6457e09190a35050565b60006020828403121561012d57600080fd5b81516001600160a01b038116811461014457600080fd5b9392505050565b60805161086561017a6000396000818160db0152818161027e015281816103e701526104ec01526108656000f3fe608060405234801561001057600080fd5b50600436106100b45760003560e01c806386f8950a1161007157806386f8950a146101415780638da5cb5b1461016a578063ba9bf7571461017b578063d9ceab1314610183578063f2fde38b1461018b578063fa10f4651461019e57600080fd5b80631ca0ed8e146100b95780632bebf6bf146100ce5780633e413bee146100d6578063560d52d41461011a57806362a5dbbc14610130578063715018a614610139575b600080fd5b6100cc6100c736600461075d565b6101be565b005b6100cc610370565b6100fd7f000000000000000000000000000000000000000000000000000000000000000081565b6040516001600160a01b0390911681526020015b60405180910390f35b610122600a81565b604051908152602001610111565b61012260035481565b6100cc610468565b61012261014f366004610792565b6001600160a01b031660009081526002602052604090205490565b6000546001600160a01b03166100fd565b600354610122565b6100cc61047a565b6100cc610199366004610792565b61054d565b6101226101ac366004610792565b60026020526000908152604090205481565b6101c661058b565b6001600160a01b0382166102215760405162461bcd60e51b815260206004820152601960248201527f496e76616c696420646576656c6f70657220616464726573730000000000000060448201526064015b60405180910390fd5b600081116102715760405162461bcd60e51b815260206004820152601d60248201527f416d6f756e74206d7573742062652067726561746572207468616e20300000006044820152606401610218565b6102a66001600160a01b037f0000000000000000000000000000000000000000000000000000000000000000163330846105b5565b600060646102b5600a846107ca565b6102bf91906107e7565b905060006102cd8284610809565b6001600160a01b0385166000908152600260205260408120805492935083929091906102fa90849061081c565b925050819055508160036000828254610313919061081c565b909155505060408051848152602081018490526001600160a01b03861691339188917f068aff5470a37ae93ab95647f152a984659be74362c418752fdef4eb8962dae6910160405180910390a4505061036b60018055565b505050565b610378610622565b61038061058b565b600354806103c35760405162461bcd60e51b815260206004820152601060248201526f4e6f206665657320746f20636c61696d60801b6044820152606401610218565b600060035561040e6103dd6000546001600160a01b031690565b6001600160a01b037f000000000000000000000000000000000000000000000000000000000000000016908361064f565b6000546001600160a01b03166001600160a01b03167f0636f1043cff5f4c437926a4412416778ddc5e970feb177685b587e81dad90958260405161045491815260200190565b60405180910390a25061046660018055565b565b610470610622565b6104666000610680565b61048261058b565b33600090815260026020526040902054806104d65760405162461bcd60e51b81526020600482015260146024820152734e6f206561726e696e677320746f20636c61696d60601b6044820152606401610218565b3360008181526002602052604081205561051b907f00000000000000000000000000000000000000000000000000000000000000006001600160a01b0316908361064f565b60405181815233907f6a8d334a32dfb49dae325dba76deb51b0b8f5ea50b1cdfa70710f4dc1b9c24c590602001610454565b610555610622565b6001600160a01b03811661057f57604051631e4fbdf760e01b815260006004820152602401610218565b61058881610680565b50565b6002600154036105ae57604051633ee5aeb560e01b815260040160405180910390fd5b6002600155565b6040516001600160a01b03848116602483015283811660448301526064820183905261061c9186918216906323b872dd906084015b604051602081830303815290604052915060e01b6020820180516001600160e01b0383818316178352505050506106d0565b50505050565b6000546001600160a01b031633146104665760405163118cdaa760e01b8152336004820152602401610218565b6040516001600160a01b0383811660248301526044820183905261036b91859182169063a9059cbb906064016105ea565b600080546001600160a01b038381166001600160a01b0319831681178455604051919092169283917f8be0079c531659141344cd1fd0a4f28419497f9722a3daafe3b4186f6b6457e09190a35050565b600080602060008451602086016000885af1806106f3576040513d6000823e3d81fd5b50506000513d9150811561070b578060011415610718565b6001600160a01b0384163b155b1561061c57604051635274afe760e01b81526001600160a01b0385166004820152602401610218565b80356001600160a01b038116811461075857600080fd5b919050565b60008060006060848603121561077257600080fd5b8335925061078260208501610741565b9150604084013590509250925092565b6000602082840312156107a457600080fd5b6107ad82610741565b9392505050565b634e487b7160e01b600052601160045260246000fd5b80820281158282048414176107e1576107e16107b4565b92915050565b60008261080457634e487b7160e01b600052601260045260246000fd5b500490565b818103818111156107e1576107e16107b4565b808201808211156107e1576107e16107b456fea26469706673582212202fa71e6f88f22bf14a3f616c04a5923e11af7b52a8b4582b1b4320c89f66739564736f6c63430008140033",
  "linkReferences": {},
  "deployedLinkReferences": {}
}